:100000000C943B010C946C010C946C010C946C01ED
:100010000C946C010C946C010C946C010C946C01AC
:100020000C946C010C946C010C946C010C946C019C
:100030000C946C010C946C010C946C010C946C018C
:100040000C946C010C946C010C946C010C946C017C
:100050000C946C010C946C010C946C010C94AC0627
:100060000C946C010C9476060C944C060C946C0168
:100070000C946C010C946C010C946C010C946C014C
:100080000C946C010C946C010C946C010C946C013C
:100090000C946C010C946C010C946C010C946C012C
:1000A0000C946C010C946C010C946C010C946C011C
:1000B0000C946C010C946C010C946C010C946C010C
:1000C0000C946C010C946C010C946C010C946C01FC
:1000D0000C946C010C946C010C946C010C946C01EC
:1000E0000C946C010C94F1020C9408030C949B0189
:1000F0000C94D7020C9428030C94E9020C94460645
:100100000C94F8020C9424030C9404020C94B6038F
:100110000C941E030C940C030C9451020C946E016D
:100120000C9416030C94B7030C94BE010C94FE02BD
:100130000C94AA010C943B070C9402030C94CC0180
:100140000C94ED020C941A030C9410030C94F50219
:100150000C94D20200002100240027002A002D0068
:100160003000330001010000040107010A01000012
:100170002200250028002B002E003100340002014F
:100180000000050108010B0100000A0B02090C0D1B
:100190000E0807030401000000000000000000003A
:1001A000000000000000000000000000000000004F
:1001B000000000001211100000000000000000000C
:1001C000000000000000000000000000000000002F
:1001D00020002300260029002C002F0032000001FF
:1001E00000000301060109010505050507050808CA
:1001F0000808020202020A0A0808040404040101B1
:1002000001010101010103030303030303030407C5
:1002100007070C0C0C0C0C0C0C0C0202020206065C
:100220000606060606060B0B0B0B0B0B0B0B01024F
:1002300010202008081020401020408002010201F8
:1002400008040201010204081020408080402010B0
:100250000804020180040201804020100804020109
:100260000804020101020408102040800102040871
:10027000102040803B0711241FBECFEFD1E2DEBF2C
:10028000CDBF00E00CBF12E0A0E0B2E0E4E5F6E193
:1002900000E00BBF02C007900D92A83BB107D9F751
:1002A00023E0A8EBB2E001C01D92A637B207E1F748
:1002B00011E0CBE3D1E000E006C021970109802FD7
:1002C000FE010E94200BCA33D10780E00807A9F77E
:1002D0000E9485070C94280B0C940000AF92BF92EB
:1002E000CF92DF92EF92FF920F931F93CF93DF9302
:1002F0006C017B018B01040F151FEB015E01AE1831
:10030000BF08C017D10759F06991D601ED91FC9152
:100310000190F081E02DC6011995892B79F7C5016F
:10032000DF91CF911F910F91FF90EF90DF90CF90D1
:10033000BF90AF900895FC01538D448D252F30E080
:10034000842F90E0821B930B541710F0CF960895E2
:1003500001970895FC01918D828D981761F0A28D0F
:10036000AE0FBF2FB11D5D968C91928D9F5F9F73D5
:10037000928F90E008958FEF9FEF0895FC01918D8B
:10038000828D981731F0828DE80FF11D858D90E0F8
:1003900008958FEF9FEF0895FC01918D228D892F95
:1003A00090E0805C9F4F821B91098F73992708957D
:1003B00081EC92E00E94CC0121E0892B09F420E03D
:1003C000822F0895FC01A48DA80FB92FB11DA35A47
:1003D000BF4F2C91848D90E001968F739927848F65
:1003E000A689B7892C93A089B1898C918370806488
:1003F0008C93938D848D981306C00288F389E02D29
:1004000080818F7D80830895EF92FF920F931F93D9
:10041000CF93DF93EC0181E0888F9B8D8C8D9813B7
:100420001AC0E889F989808185FF15C09FB7F894C3
:10043000EE89FF896083E889F9898081837080640F
:1004400080839FBF81E090E0DF91CF911F910F915A
:10045000FF90EF900895F62E0B8D10E00F5F1F4F69
:100460000F731127E02E8C8D8E110CC00FB607FC78
:10047000FACFE889F989808185FFF5CFCE010E9406
:10048000E201F1CFEB8DEC0FFD2FF11DE35AFF4F91
:10049000F0829FB7F8940B8FEA89FB898081806294
:1004A000CFCFCF93DF93EC01888D8823B9F0AA8951
:1004B000BB89E889F9898C9185FD03C0808186FD1F
:1004C0000DC00FB607FCF7CF8C9185FFF2CF80816E
:1004D00085FFEDCFCE010E94E201E9CFDF91CF9100
:1004E000089580E090E0892B29F00E94D8018111C5
:1004F0000E94000080E090E0892B49F080E090E0CD
:10050000892B29F00E94000081110E94000080E0E8
:1005100090E0892B49F080E090E0892B29F00E943F
:10052000000081110E94000080E090E0892B49F0DA
:1005300080E090E0892B29F00E94000081110C944A
:1005400000000895282F30E0F901E857FE4F9491FC
:10055000F901E25DFD4F449128513E4FF90124918C
:10056000222309F435C0992311F191509231F8F406
:10057000E92FF0E08827E054FD4F8F4F0C94200BBB
:10058000F102F502D202E902ED02D702F802FE0200
:10059000020308030C03100316031A03D7021E03F9
:1005A00024032803809180008F7780938000E22FBE
:1005B000F0E0EE0FFF1FE259FE4FA591B4918FB707
:1005C000F894EC91611148C040954E234C938FBF35
:1005D0000895809180008F7DE8CF80918000877F93
:1005E000E4CF84B58F7784BDE2CF84B58F7DFBCF18
:1005F0008091B0008F778093B000D9CF8091B00008
:100600008F7DF9CF809190008F7780939000CFCF2E
:10061000809190008F7DF9CF80919000877FF5CFFA
:100620008091A0008F778093A000C1CF8091A0001F
:100630008F7DF9CF8091A000877FF5CF8091200139
:100640008F7780932001B3CF809120018F7DF9CFE8
:1006500080912001877FF5CF4E2BB8CFCF93DF93CA
:1006600090E0FC01E25DFD4F249188519E4FFC011A
:1006700084918823D1F090E0880F991FFC01EC5AF7
:10068000FE4FA591B491FC01E259FE4FC591D49162
:1006900061110EC09FB7F8948C91E22FE0958E23E4
:1006A0008C932881E223E8839FBFDF91CF91089547
:1006B0008FB7F894EC91E22BEC938FBFF6CF3FB756
:1006C000F8948091BD029091BE02A091BF02B091BA
:1006D000C00226B5A89B05C02F3F19F00196A11DA9
:1006E000B11D3FBFBA2FA92F982F8827BC01CD017C
:1006F000620F711D811D911D42E0660F771F881FDB
:10070000991F4A95D1F708958F929F92AF92BF9209
:10071000CF92DF92EF92FF924B015C010E945F0348
:100720006B017C010E945F036C197D098E099F0992
:10073000683E734081059105A8F321E0821A910873
:10074000A108B10888EEC80E83E0D81EE11CF11C98
:1007500081149104A104B10429F7FF90EF90DF9078
:10076000CF90BF90AF909F908F900895089590E0A4
:1007700080E00895FC0101900020E9F73197AF0176
:10078000481B590BBC0181EC92E00C946E018F92D6
:100790009F92AF92BF920F931F93CF93DF93CDB7EA
:1007A000DEB7A1970FB6F894DEBF0FBECDBF19A27A
:1007B000423008F44AE08E010F5D1F4F842E912CC9
:1007C000B12CA12CA50194010E94FE0AE62FB901CB
:1007D000CA01EA30F4F4E05DD801EE938D01232BD9
:1007E000242B252B79F790E080E0109719F0CD01AC
:1007F0000E94BA03A1960FB6F894DEBF0FBECDBF1C
:10080000DF91CF911F910F91BF90AF909F908F90EC
:100810000895E95CE1CFCF93DF930E94BA03EC0126
:100820008EE192E00E94BA038C0F9D1FDF91CF9161
:1008300008954F925F926F927F928F929F92AF92A4
:10084000BF92CF92DF92EF92FF920F931F93CF93BD
:100850006B017C01742EAC019B010E94F90A882374
:1008600099F081E292E0CF911F910F91FF90EF906C
:10087000DF90CF90BF90AF909F908F907F906F90C0
:100880005F904F900C94BA0346015701E894B7F873
:100890002FEF3FEF4FE75FE7C501B4010E94F90A70
:1008A00081110DC02FEF3FEF4FE75FE7C501B401A6
:1008B0000E942F0918161CF485E292E0D4CF2FEF86
:1008C0003FEF4FE75FE4C701B6010E94870A1816A1
:1008D0001CF489E292E0C7CF2FEF3FEF4FE75FECC8
:1008E000C701B6010E942F0987FDF3CF20E030E059
:1008F000A901C701B6010E942F0910E000E087FF9F
:100900000AC06DE281EC92E00E9404028C01F7FAC9
:10091000F094F7F8F094C0E060E070E080E09FE3CE
:100920007C1641F020E030E040E251E40E943409BE
:10093000CF5FF6CFA70196010E94C3082B013C01AF
:100940000E94A6094B015C014AE00E94C7037C019A
:10095000E00EF11ECC23C1F1C501B4010E94D509FE
:100960009B01AC01C301B2010E94C2084B015C01B2
:100970006EE281EC92E00E940402E80EF91EC15082
:1009800018F120E030E040E251E4C501B4010E94DA
:100990008C0A2B013C010E94A6094B01B12CA12C11
:1009A0004AE0C501B4010E94C703E80EF91EC50163
:1009B000B4010E94D5099B01AC01C301B2010E94A0
:1009C000C2084B015C01DBCFC701CF911F910F9192
:1009D000FF90EF90DF90CF90BF90AF909F908F905F
:1009E0007F906F905F904F900895CF93DF93EC01CD
:1009F00060E08E810E94A20261E08E810E94A202CC
:100A000060E08E810E94A2028BE891E00197F1F7ED
:100A1000DF91CF910895CF92DF92EF92FF920F93E3
:100A20001F93CF93DF936C017C0187E0E80EF11CEC
:100A3000D0E0C0E0062F10E0B8010C2E02C0759582
:100A400067950A94E2F76170F70181917F010E9436
:100A5000A2022196C430D10579F7C601DF91CF916A
:100A60001F910F91FF90EF90DF90CF900C94F504C1
:100A7000CF92DF92EF92FF920F931F93CF93DF936A
:100A8000EC01F62E642F8C810E94A2028D818F3F93
:100A900019F060E00E94A2020F2D10E08F8584FF04
:100AA00025C06E0187E0C80ED11CF12CE12CB801E5
:100AB0000E2C02C0759567950A94E2F76170F601F5
:100AC00081916F010E94A202FFEFEF1AFF0A88E0F6
:100AD000E816F10461F7CE01DF91CF911F910F91DC
:100AE000FF90EF90DF90CF900C94F504B80184E074
:100AF000759567958A95E1F7CE010E940B056F2DDC
:100B0000CE01DF91CF911F910F91FF90EF90DF9079
:100B1000CF900C940B05CF93DF93823029F4909102
:100B20006D03986090936D0380937103109272032C
:100B300080E48093730380E18093740380E5809365
:100B4000750361E0809162030E942E03809163032C
:100B50008F3F19F061E00E942E0361E080916403F1
:100B60000E942E03CEE5D3E09E012E5533408091A6
:100B70006D0384FD0BC084E090E0219628173907AF
:100B800044F461E08E810E942E03EECF88E090E075
:100B9000F4CF8BE39DE00197F1F760E08091620371
:100BA0000E94A20260E0809164030E94A2028091F0
:100BB00063038F3F19F060E00E94A20260916D0311
:100BC00064FD45C063E08EE593E00E940B05CBE435
:100BD000D6E4CE010197F1F763E08EE593E00E9441
:100BE0000B052197F1F763E08EE593E00E940B057A
:100BF00083E592E00197F1F762E08EE593E00E94D1
:100C00000B0560916D03606240E08EE593E00E9409
:100C1000380584E080936E0340E06CE08EE593E05D
:100C20000E94380540E061E08EE593E00E943805BF
:100C30008BE39FE10197F1F782E080936F0340E03F
:100C400066E08EE593E0DF91CF910C943805606209
:100C500040E08EE593E00E9438058BE496E401972E
:100C6000F1F760916D03606240E08EE593E00E94D1
:100C7000380583E592E00197F1F760916D036062BA
:100C800040E08EE593E00E943805BBCF41E00E9432
:100C9000380581E090E008951F920F920FB60F92F1
:100CA00011240BB60F922F933F934F935F936F9343
:100CB0007F938F939F93AF93BF93EF93FF9381ECB9
:100CC00092E00E94E201FF91EF91BF91AF919F915D
:100CD0008F917F916F915F914F913F912F910F90E5
:100CE0000BBE0F900FBE0F901F9018951F920F9282
:100CF0000FB60F9211240BB60F922F938F939F93E1
:100D0000EF93FF93E091D102F091D2028081E091C4
:100D1000D702F091D80282FD1DC090818091DA0245
:100D20008F5F8F732091DB02821741F0E091DA022E
:100D3000F0E0EF53FD4F958F8093DA02FF91EF9132
:100D40009F918F912F910F900BBE0F900FBE0F9020
:100D50001F9018958081F2CF1F920F920FB60F92BD
:100D600011242F933F938F939F93AF93BF938091C1
:100D7000B9029091BA02A091BB02B091BC0230912D
:100D8000B80223E0230F2D3758F50196A11DB11DA0
:100D90002093B8028093B9029093BA02A093BB0249
:100DA000B093BC028091BD029091BE02A091BF029F
:100DB000B091C0020196A11DB11D8093BD02909318
:100DC000BE02A093BF02B093C002BF91AF919F91AA
:100DD0008F913F912F910F900FBE0F901F901895FC
:100DE00026E8230F0296A11DB11DD2CFCF92DF922C
:100DF000EF92FF920F931F93E82FF92F05C0015038
:100E000011092109310961F1908196239417B9F3F1
:100E100005C0015011092109310911F19081962372
:100E20009413F7CFC12CD12CE12CF12C0AC08FEFF9
:100E3000C81AD80AE80AF80A0C151D052E053F0540
:100E400079F080818623841791F36C2D7D2D8E2D72
:100E50009F2D1F910F91FF90EF90DF90CF900895FD
:100E600060E070E080E090E01F910F91FF90EF90C4
:100E7000DF90CF900895E1ECF2E01382128288EEC9
:100E800093E0A0E0B0E084839583A683B78384E0F9
:100E900092E09183808385EC90E09587848784EC51
:100EA00090E09787868780EC90E0918B808B81EC37
:100EB00090E0938B828B82EC90E0958B848B86EC18
:100EC00090E0978B868B118E128E138E148EEEE52A
:100ED000F3E01382128286E192E09183808387E0BF
:100EE00084838FEF858386E0868385E0878384E033
:100EF000808783E0818782E0828713861486158647
:100F00001686178681E00C948B05789484B58260F0
:100F100084BD84B5816084BD85B5826085BD85B59D
:100F2000816085BD80916E00816080936E0010921B
:100F30008100809181008260809381008091810096
:100F40008160809381008091800081608093800027
:100F50008091B10084608093B1008091B000816085
:100F60008093B00080919100826080939100809185
:100F700091008160809391008091900081608093C6
:100F800090008091A10082608093A1008091A100D7
:100F900081608093A1008091A00081608093A00077
:100FA00080912101826080932101809121018160E3
:100FB00080932101809120018160809320018091A4
:100FC0007A00846080937A0080917A0082608093B6
:100FD0007A0080917A00816080937A0080917A0013
:100FE000806880937A001092C10061E089E00E94DD
:100FF0002E0360E088E00E942E0382E00E948B05B1
:10100000E091D102F091D20282E08083E091CD02A2
:10101000F091CE021082E091CF02F091D0028FECDD
:1010200080831092D902E091D502F091D60286E039
:101030008083E091D302F091D4028081806180832B
:10104000E091D302F091D402808188608083E091A6
:10105000D302F091D402808180688083E091D30232
:10106000F091D40280818F7D8083C6E3D2E090EF3F
:10107000E92E91E0F92E61E089E00E94A20261E090
:1010800070E080E090E00E94840360E089E00E94CC
:10109000A202FE016491F7018491E82FF0E0EE0FC7
:1010A000FF1FE253FE4F8591949100E412E42FE07C
:1010B00030E0462F0E94F606611571058105910505
:1010C00029F06F5F7F4F8F4F9F4F9F70072E000C4F
:1010D000880B990B0E94D7092DEC3CEC48E652E4B2
:1010E0000E94340920E030E048EC52E40E943409C8
:1010F0002B013C01AC019B0160E070E080E090E4DA
:101100000E94C2084B015C018DE292E00E94BA038A
:1011100042E0C301B2010E94190483E592E00E94FB
:101120000B0488E592E00E94BA0342E0C501B401D5
:101130000E94190483E592E00E940B0487E792E085
:101140000E94BA0320E030E040E850E4C501B40159
:101150000E948C0A42E00E94190480E992E00E94F9
:101160000B0487E992E00E940B0480E292E00E9467
:101170000B046CED75E080E090E00E9484030E9417
:10118000710279CF5058BB27AA270E94DA080C9425
:101190004D0A0E943F0A38F00E94460A20F039F4B6
:1011A0009F3F19F426F40C943C0A0EF4E095E7FBFB
:1011B0000C94360AE92F0E945E0A58F3BA176207A8
:1011C00073078407950720F079F4A6F50C94800A3C
:1011D0000EF4E0950B2EBA2FA02D0B01B901900152
:1011E0000C01CA01A0011124FF27591B99F0593F96
:1011F00050F4503E68F11A16F040A22F232F342FDE
:101200004427585FF3CF469537952795A795F0402B
:101210005395C9F77EF41F16BA0B620B730B840B40
:10122000BAF09150A1F0FF0FBB1F661F771F881FF8
:10123000C2F70EC0BA0F621F731F841F48F4879550
:1012400077956795B795F7959E3F08F0B0CF939542
:10125000880F08F09927EE0F9795879508950E94BB
:10126000120A08F481E008950E9448090C944D0A7E
:101270000E94460A58F00E943F0A40F029F45F3F5E
:1012800029F00C94360A51110C94810A0C943C0AF2
:101290000E945E0A68F39923B1F3552391F3951BDD
:1012A000550BBB27AA2762177307840738F09F5F87
:1012B0005F4F220F331F441FAA1FA9F335D00E2EF4
:1012C0003AF0E0E832D091505040E695001CCAF761
:1012D0002BD0FE2F29D0660F771F881FBB1F261724
:1012E00037074807AB07B0E809F0BB0B802DBF01FB
:1012F000FF2793585F4F3AF09E3F510578F00C94CA
:10130000360A0C94810A5F3FE4F3983ED4F3869545
:1013100077956795B795F7959F5FC9F7880F911DEA
:101320009695879597F90895E1E0660F771F881FD6
:10133000BB1F621773078407BA0720F0621B730B89
:10134000840BBA0BEE1F88F7E09508950E94660A99
:1013500088F09F5798F0B92F9927B751B0F0E1F076
:10136000660F771F881F991F1AF0BA95C9F714C026
:10137000B13091F00E94800AB1E008950C94800A87
:10138000672F782F8827B85F39F0B93FCCF386955F
:1013900077956795B395D9F73EF4909580957095BC
:1013A00061957F4F8F4F9F4F0895E89409C097FB39
:1013B0003EF490958095709561957F4F8F4F9F4F2C
:1013C0009923A9F0F92F96E9BB279395F695879570
:1013D00077956795B795F111F8CFFAF4BB0F11F433
:1013E00060FF1BC06F5F7F4F8F4F9F4F16C08823DA
:1013F00011F096E911C0772321F09EE8872F762F10
:1014000005C0662371F096E8862F70E060E02AF050
:101410009A95660F771F881FDAF7880F969587953C
:1014200097F90895990F0008550FAA0BE0E8FEEF11
:1014300016161706E807F907C0F012161306E40798
:10144000F50798F0621B730B840B950B39F40A2691
:1014500061F0232B242B252B21F408950A2609F46F
:10146000A140A6958FEF811D811D089597F99F6773
:1014700080E870E060E008959FEF80EC089500241C
:101480000A941616170618060906089500240A94E9
:1014900012161306140605060895092E0394000C6F
:1014A00011F4882352F0BB0F40F4BF2B11F460FFFE
:1014B00004C06F5F7F4F8F4F9F4F089557FD905827
:1014C000440F551F59F05F3F71F04795880F97FB08
:1014D000991F61F09F3F79F08795089512161306C2
:1014E0001406551FF2CF4695F1DF08C016161706F1
:1014F0001806991FF1CF8695710561050894089526
:10150000E894BB2766277727CB0197F908950E94B7
:10151000120A08F48FEF08950E949F0A0C944D0A56
:101520000E943F0A38F00E94460A20F0952311F0ED
:101530000C94360A0C943C0A11240C94810A0E94E3
:101540005E0A70F3959FC1F3950F50E0551F629F9F
:10155000F001729FBB27F00DB11D639FAA27F00D0C
:10156000B11DAA1F649F6627B00DA11D661F829F33
:101570002227B00DA11D621F739FB00DA11D621F18
:10158000839FA00D611D221F749F3327A00D611D35
:10159000231F849F600D211D822F762F6A2F112417
:1015A0009F5750409AF0F1F088234AF0EE0FFF1F4A
:1015B000BB1F661F771F881F91505040A9F79E3FA1
:1015C000510580F00C94360A0C94810A5F3FE4F3D5
:1015D000983ED4F3869577956795B795F795E795F7
:1015E0009F5FC1F7FE2B880F911D9695879597F900
:1015F00008950E94120A880B990B0895A1E21A2EF1
:10160000AA1BBB1BFD010DC0AA1FBB1FEE1FFF1FA6
:10161000A217B307E407F50720F0A21BB30BE40BF6
:10162000F50B661F771F881F991F1A9469F760953D
:101630007095809590959B01AC01BD01CF010895F7
:10164000EE0FFF1F881F8BBF0790F691E02D1994B6
:04165000F894FFCF3C
:101654000000000004026E019B015102CC01AA01AA
:10166400BE010000000046066E01B703B6030D0A72
:10167400006E616E00696E66006F76660044697381
:1016840074616E63696120656E74726520656E2095
:1016940073656E736F72207920656C206167756164
:1016A4003A2000205B6D5D00416C747572612064AA
:1016B40065206C6120636F6C756D6E6120646520BC
:1016C400616775613A2000566F6C756D656E2064B4
:1016D4006520616775612061637475616C3A2000EF
:1016E400205B6D5E335D002D2D2D2D2D2D2D2D2D8B
:1016F4002D2D2D2D2D2D2D2D2D2D2D2D2D2D2D2D16
:081704002D2D2D2D2D2D0000CF
:00000001FF
